###############################################################################
#
# IAR ELF Linker V7.50.2.10312/W32 for ARM                25/May/2016  18:31:47
# Copyright 2007-2015 IAR Systems AB.
#
#    Output file  =  
#        C:\UTCloud\BAKA\Discovery\PRBS9-F1\EWARM\PRBS9-F1\Exe\PRBS9-F1.out
#    Map file     =  
#        C:\UTCloud\BAKA\Discovery\PRBS9-F1\EWARM\PRBS9-F1\List\PRBS9-F1.map
#    Command line =  
#        C:\UTCloud\BAKA\Discovery\PRBS9-F1\EWARM\PRBS9-F1\Obj\main.o
#        C:\UTCloud\BAKA\Discovery\PRBS9-F1\EWARM\PRBS9-F1\Obj\startup_stm32f100xb.o
#        C:\UTCloud\BAKA\Discovery\PRBS9-F1\EWARM\PRBS9-F1\Obj\stm32f1xx_hal.o
#        C:\UTCloud\BAKA\Discovery\PRBS9-F1\EWARM\PRBS9-F1\Obj\stm32f1xx_hal_cortex.o
#        C:\UTCloud\BAKA\Discovery\PRBS9-F1\EWARM\PRBS9-F1\Obj\stm32f1xx_hal_dma.o
#        C:\UTCloud\BAKA\Discovery\PRBS9-F1\EWARM\PRBS9-F1\Obj\stm32f1xx_hal_flash.o
#        C:\UTCloud\BAKA\Discovery\PRBS9-F1\EWARM\PRBS9-F1\Obj\stm32f1xx_hal_flash_ex.o
#        C:\UTCloud\BAKA\Discovery\PRBS9-F1\EWARM\PRBS9-F1\Obj\stm32f1xx_hal_gpio.o
#        C:\UTCloud\BAKA\Discovery\PRBS9-F1\EWARM\PRBS9-F1\Obj\stm32f1xx_hal_msp.o
#        C:\UTCloud\BAKA\Discovery\PRBS9-F1\EWARM\PRBS9-F1\Obj\stm32f1xx_hal_pwr.o
#        C:\UTCloud\BAKA\Discovery\PRBS9-F1\EWARM\PRBS9-F1\Obj\stm32f1xx_hal_rcc.o
#        C:\UTCloud\BAKA\Discovery\PRBS9-F1\EWARM\PRBS9-F1\Obj\stm32f1xx_hal_rcc_ex.o
#        C:\UTCloud\BAKA\Discovery\PRBS9-F1\EWARM\PRBS9-F1\Obj\stm32f1xx_hal_rtc.o
#        C:\UTCloud\BAKA\Discovery\PRBS9-F1\EWARM\PRBS9-F1\Obj\stm32f1xx_hal_rtc_ex.o
#        C:\UTCloud\BAKA\Discovery\PRBS9-F1\EWARM\PRBS9-F1\Obj\stm32f1xx_hal_tim.o
#        C:\UTCloud\BAKA\Discovery\PRBS9-F1\EWARM\PRBS9-F1\Obj\stm32f1xx_hal_tim_ex.o
#        C:\UTCloud\BAKA\Discovery\PRBS9-F1\EWARM\PRBS9-F1\Obj\stm32f1xx_it.o
#        C:\UTCloud\BAKA\Discovery\PRBS9-F1\EWARM\PRBS9-F1\Obj\system_stm32f1xx.o
#        -o C:\UTCloud\BAKA\Discovery\PRBS9-F1\EWARM\PRBS9-F1\Exe\PRBS9-F1.out
#        --map
#        C:\UTCloud\BAKA\Discovery\PRBS9-F1\EWARM\PRBS9-F1\List\PRBS9-F1.map
#        --config
#        C:\UTCloud\BAKA\Discovery\PRBS9-F1\EWARM/stm32f100xb_flash.icf
#        --semihosting --entry __iar_program_start --redirect
#        __iar_sh_stdout=__iar_sh_stdout_swo --vfe
#
###############################################################################

*******************************************************************************
*** RUNTIME MODEL ATTRIBUTES
***

CppFlavor       = *
__SystemLibrary = DLib


*******************************************************************************
*** PLACEMENT SUMMARY
***

"A1":  place at 0x08000000 { ro section .intvec };
"P1":  place in [from 0x08000000 to 0x0801ffff] { ro };
"P2":  place in [from 0x20000000 to 0x20001fff] { rw, block CSTACK, block HEAP };

  Section            Kind        Address    Size  Object
  -------            ----        -------    ----  ------
"A1":                                      0x120
  .intvec            ro code  0x08000000   0x120  startup_stm32f100xb.o [1]
                            - 0x08000120   0x120

"P1":                                     0x139b
  .text              ro code  0x08000120   0x4fc  stm32f1xx_hal_rcc.o [1]
  .text              ro code  0x0800061c    0x70  stm32f1xx_hal.o [1]
  .text              ro code  0x0800068c    0xda  stm32f1xx_hal_cortex.o [1]
  .text              ro code  0x08000768    0x84  stm32f1xx_hal_msp.o [1]
  .text              ro code  0x080007ec   0x490  main.o [1]
  .text              ro code  0x08000c7c   0x1d4  stm32f1xx_hal_gpio.o [1]
  .text              ro code  0x08000e50   0x3dc  stm32f1xx_hal_tim.o [1]
  .text              ro code  0x0800122c    0x5a  stm32f1xx_hal_tim_ex.o [1]
  .text              ro code  0x08001288    0x50  system_stm32f1xx.o [1]
  .text              ro code  0x080012d8    0x38  packbits_init_single.o [4]
  .text              ro code  0x08001310    0x2c  stm32f1xx_it.o [1]
  .text              ro code  0x0800133c    0x28  data_init.o [4]
  .iar.init_table    const    0x08001364    0x10  - Linker created -
  .text              ro code  0x08001374    0x1a  cmain.o [4]
  .text              ro code  0x0800138e     0x4  low_level_init.o [3]
  .text              ro code  0x08001392     0x4  exit.o [3]
  .text              ro code  0x08001398     0xa  cexit.o [4]
  .text              ro code  0x080013a4    0x14  exit.o [5]
  .text              ro code  0x080013b8    0x10  startup_stm32f100xb.o [1]
  .text              ro code  0x080013c8     0xc  cstartup_M.o [4]
  .text              ro code  0x080013d4     0x4  startup_stm32f100xb.o [1]
  .text              ro code  0x080013d8     0x4  startup_stm32f100xb.o [1]
  .text              ro code  0x080013dc     0x4  startup_stm32f100xb.o [1]
  .text              ro code  0x080013e0     0x4  startup_stm32f100xb.o [1]
  .text              ro code  0x080013e4     0x4  startup_stm32f100xb.o [1]
  .text              ro code  0x080013e8     0x4  startup_stm32f100xb.o [1]
  .text              ro code  0x080013ec     0x4  startup_stm32f100xb.o [1]
  .text              ro code  0x080013f0     0x4  startup_stm32f100xb.o [1]
  .text              ro code  0x080013f4     0x4  startup_stm32f100xb.o [1]
  .text              ro code  0x080013f8     0x4  startup_stm32f100xb.o [1]
  .text              ro code  0x080013fc     0x4  startup_stm32f100xb.o [1]
  .text              ro code  0x08001400     0x4  startup_stm32f100xb.o [1]
  .text              ro code  0x08001404     0x4  startup_stm32f100xb.o [1]
  .text              ro code  0x08001408     0x4  startup_stm32f100xb.o [1]
  .text              ro code  0x0800140c     0x4  startup_stm32f100xb.o [1]
  .text              ro code  0x08001410     0x4  startup_stm32f100xb.o [1]
  .text              ro code  0x08001414     0x4  startup_stm32f100xb.o [1]
  .text              ro code  0x08001418     0x4  startup_stm32f100xb.o [1]
  .text              ro code  0x0800141c     0x4  startup_stm32f100xb.o [1]
  .text              ro code  0x08001420     0x4  startup_stm32f100xb.o [1]
  .text              ro code  0x08001424     0x4  startup_stm32f100xb.o [1]
  .text              ro code  0x08001428     0x4  startup_stm32f100xb.o [1]
  .text              ro code  0x0800142c     0x4  startup_stm32f100xb.o [1]
  .text              ro code  0x08001430     0x4  startup_stm32f100xb.o [1]
  .text              ro code  0x08001434     0x4  startup_stm32f100xb.o [1]
  .text              ro code  0x08001438     0x4  startup_stm32f100xb.o [1]
  .text              ro code  0x0800143c     0x4  startup_stm32f100xb.o [1]
  .text              ro code  0x08001440     0x4  startup_stm32f100xb.o [1]
  .text              ro code  0x08001444     0x4  startup_stm32f100xb.o [1]
  .text              ro code  0x08001448     0x4  startup_stm32f100xb.o [1]
  .text              ro code  0x0800144c     0x4  startup_stm32f100xb.o [1]
  .text              ro code  0x08001450     0x4  startup_stm32f100xb.o [1]
  .text              ro code  0x08001454     0x4  startup_stm32f100xb.o [1]
  .text              ro code  0x08001458     0x4  startup_stm32f100xb.o [1]
  .text              ro code  0x0800145c     0x4  startup_stm32f100xb.o [1]
  .text              ro code  0x08001460     0x4  startup_stm32f100xb.o [1]
  .text              ro code  0x08001464     0x4  startup_stm32f100xb.o [1]
  .text              ro code  0x08001468     0x4  startup_stm32f100xb.o [1]
  .text              ro code  0x0800146c     0x4  startup_stm32f100xb.o [1]
  .text              ro code  0x08001470     0x4  startup_stm32f100xb.o [1]
  .text              ro code  0x08001474     0x4  startup_stm32f100xb.o [1]
  .text              ro code  0x08001478     0x4  startup_stm32f100xb.o [1]
  .text              ro code  0x0800147c     0x4  startup_stm32f100xb.o [1]
  .text              ro code  0x08001480     0x4  startup_stm32f100xb.o [1]
  .text              ro code  0x08001484     0x4  startup_stm32f100xb.o [1]
  .text              ro code  0x08001488     0x4  startup_stm32f100xb.o [1]
  .text              ro code  0x0800148c     0x4  startup_stm32f100xb.o [1]
  .text              ro code  0x08001490     0x4  startup_stm32f100xb.o [1]
  .rodata            const    0x08001494     0x0  packbits_init_single.o [4]
  Initializer bytes  const    0x08001494    0x27  <for P2-1>
                            - 0x080014bb  0x139b

"P2", part 1 of 2:                          0x7e
  P2-1                        0x20000000    0x7e  <Init block>
    .data            inited   0x20000000     0xc  main.o [1]
    .data            inited   0x2000000c    0x24  main.o [1]
    .data            inited   0x20000030     0x4  system_stm32f1xx.o [1]
    .bss             inited   0x20000034    0x3c  main.o [1]
    .bss             inited   0x20000070     0x4  main.o [1]
    .bss             inited   0x20000074     0x4  main.o [1]
    .bss             inited   0x20000078     0x4  stm32f1xx_hal.o [1]
    .bss             inited   0x2000007c     0x1  main.o [1]
    .bss             inited   0x2000007d     0x1  main.o [1]
                            - 0x2000007e    0x7e

"P2", part 2 of 2:                         0x200
  CSTACK                      0x20000080   0x200  <Block>
    CSTACK           uninit   0x20000080   0x200  <Block tail>
                            - 0x20000280   0x200


*******************************************************************************
*** INIT TABLE
***

          Address     Size
          -------     ----
Copy/packbits (__iar_packbits_init_single3)
    1 source range, total size 0x27 (30% of destination):
          0x08001494  0x27
    1 destination range, total size 0x7e:
          0x20000000  0x7e



*******************************************************************************
*** MODULE SUMMARY
***

    Module                  ro code  ro data  rw data
    ------                  -------  -------  -------
C:\UTCloud\BAKA\Discovery\PRBS9-F1\EWARM\PRBS9-F1\Obj: [1]
    main.o                    1 168       36      118
    startup_stm32f100xb.o       496
    stm32f1xx_hal.o             112        1        4
    stm32f1xx_hal_cortex.o      218
    stm32f1xx_hal_gpio.o        468
    stm32f1xx_hal_msp.o         132
    stm32f1xx_hal_rcc.o       1 276
    stm32f1xx_hal_tim.o         988
    stm32f1xx_hal_tim_ex.o       90
    stm32f1xx_it.o               44
    system_stm32f1xx.o           80        2        4
    -------------------------------------------------
    Total:                    5 072       39      126

command line: [2]
    -------------------------------------------------
    Total:

dl7M_tln.a: [3]
    exit.o                        4
    low_level_init.o              4
    -------------------------------------------------
    Total:                        8

rt7M_tl.a: [4]
    cexit.o                      10
    cmain.o                      26
    cstartup_M.o                 12
    data_init.o                  40
    packbits_init_single.o       56
    -------------------------------------------------
    Total:                      144

shb_l.a: [5]
    exit.o                       20
    -------------------------------------------------
    Total:                       20

    Gaps                          8
    Linker created                        16      512
-----------------------------------------------------
    Grand Total:              5 252       55      638


*******************************************************************************
*** ENTRY LIST
***

Entry                      Address   Size  Type      Object
-----                      -------   ----  ----      ------
.iar.init_table$$Base   0x08001364          --   Gb  - Linker created -
.iar.init_table$$Limit  0x08001374          --   Gb  - Linker created -
?main                   0x08001375         Code  Gb  cmain.o [4]
CSTACK$$Base            0x20000080          --   Gb  - Linker created -
CSTACK$$Limit           0x20000280          --   Gb  - Linker created -
HAL_Delay               0x0800066d   0x1c  Code  Wk  stm32f1xx_hal.o [1]
HAL_GPIO_Init           0x08000c7d  0x190  Code  Gb  stm32f1xx_hal_gpio.o [1]
HAL_GPIO_TogglePin      0x08000e15    0x8  Code  Gb  stm32f1xx_hal_gpio.o [1]
HAL_GPIO_WritePin       0x08000e0d    0x8  Code  Gb  stm32f1xx_hal_gpio.o [1]
HAL_GetTick             0x08000665    0x6  Code  Wk  stm32f1xx_hal.o [1]
HAL_IncTick             0x0800065b    0xa  Code  Wk  stm32f1xx_hal.o [1]
HAL_Init                0x0800061d   0x1a  Code  Gb  stm32f1xx_hal.o [1]
HAL_InitTick            0x08000637   0x24  Code  Wk  stm32f1xx_hal.o [1]
HAL_MspInit             0x08000769   0x3c  Code  Gb  stm32f1xx_hal_msp.o [1]
HAL_NVIC_EnableIRQ      0x080006f9   0x12  Code  Gb  stm32f1xx_hal_cortex.o [1]
HAL_NVIC_SetPriority    0x080006a7   0x52  Code  Gb  stm32f1xx_hal_cortex.o [1]
HAL_NVIC_SetPriorityGrouping
                        0x0800068d   0x1a  Code  Gb  stm32f1xx_hal_cortex.o [1]
HAL_RCC_ClockConfig     0x08000483   0xe8  Code  Gb  stm32f1xx_hal_rcc.o [1]
HAL_RCC_GetHCLKFreq     0x0800056b   0x66  Code  Gb  stm32f1xx_hal_rcc.o [1]
HAL_RCC_OscConfig       0x08000121  0x362  Code  Gb  stm32f1xx_hal_rcc.o [1]
HAL_SYSTICK_CLKSourceConfig
                        0x0800072d   0x14  Code  Gb  stm32f1xx_hal_cortex.o [1]
HAL_SYSTICK_Callback    0x08000765    0x2  Code  Wk  stm32f1xx_hal_cortex.o [1]
HAL_SYSTICK_Config      0x0800070b   0x22  Code  Gb  stm32f1xx_hal_cortex.o [1]
HAL_SYSTICK_IRQHandler  0x08000759    0xc  Code  Gb  stm32f1xx_hal_cortex.o [1]
HAL_TIMEx_BreakCallback
                        0x08001283    0x2  Code  Wk  stm32f1xx_hal_tim_ex.o [1]
HAL_TIMEx_CommutationCallback
                        0x08001281    0x2  Code  Wk  stm32f1xx_hal_tim_ex.o [1]
HAL_TIMEx_MasterConfigSynchronization
                        0x0800122d   0x54  Code  Gb  stm32f1xx_hal_tim_ex.o [1]
HAL_TIM_Base_Init       0x08000e51   0xbe  Code  Gb  stm32f1xx_hal_tim.o [1]
HAL_TIM_Base_MspInit    0x080007a5   0x3a  Code  Gb  stm32f1xx_hal_msp.o [1]
HAL_TIM_Base_Start_IT   0x08000f0f   0x16  Code  Gb  stm32f1xx_hal_tim.o [1]
HAL_TIM_ConfigClockSource
                        0x08001087  0x196  Code  Gb  stm32f1xx_hal_tim.o [1]
HAL_TIM_IC_CaptureCallback
                        0x08001223    0x2  Code  Wk  stm32f1xx_hal_tim.o [1]
HAL_TIM_IRQHandler      0x08000f3d  0x14a  Code  Gb  stm32f1xx_hal_tim.o [1]
HAL_TIM_OC_DelayElapsedCallback
                        0x08001221    0x2  Code  Wk  stm32f1xx_hal_tim.o [1]
HAL_TIM_PWM_PulseFinishedCallback
                        0x08001225    0x2  Code  Wk  stm32f1xx_hal_tim.o [1]
HAL_TIM_PeriodElapsedCallback
                        0x0800121f    0x2  Code  Wk  stm32f1xx_hal_tim.o [1]
HAL_TIM_TriggerCallback
                        0x08001227    0x2  Code  Wk  stm32f1xx_hal_tim.o [1]
PRBS9_next_bit          0x08000a47   0x42  Code  Gb  main.o [1]
Region$$Table$$Base     0x08001364          --   Gb  - Linker created -
Region$$Table$$Limit    0x08001374          --   Gb  - Linker created -
SysTick_Handler         0x08001311   0x12  Code  Gb  stm32f1xx_it.o [1]
SystemCoreClock         0x20000030    0x4  Data  Gb  system_stm32f1xx.o [1]
SystemInit              0x08001289   0x3e  Code  Gb  system_stm32f1xx.o [1]
TIM1_UP_TIM16_IRQHandler
                        0x08001323   0x14  Code  Gb  stm32f1xx_it.o [1]
__cmain                 0x08001375         Code  Gb  cmain.o [4]
__exit                  0x080013a5   0x14  Code  Gb  exit.o [5]
__iar_data_init3        0x0800133d   0x28  Code  Gb  data_init.o [4]
__iar_packbits_init_single3
                        0x080012d9   0x38  Code  Gb  packbits_init_single.o [4]
__iar_program_start     0x080013c9         Code  Gb  cstartup_M.o [4]
__low_level_init        0x0800138f    0x4  Code  Gb  low_level_init.o [3]
__vector_table          0x08000000         Data  Gb  startup_stm32f100xb.o [1]
_call_main              0x08001381         Code  Gb  cmain.o [4]
_exit                   0x08001399         Code  Gb  cexit.o [4]
_main                   0x0800138b         Code  Gb  cmain.o [4]
aAPBAHBPrescTable       0x0800060c   0x10  Data  Gb  stm32f1xx_hal_rcc.o [1]
access_next_bit         0x080009ad   0x32  Code  Gb  main.o [1]
exit                    0x08001393    0x4  Code  Gb  exit.o [3]
g_access                0x08000b74   0x88  Data  Gb  main.o [1]
g_packetlen             0x08000bfc   0x80  Data  Gb  main.o [1]
g_syncword              0x08000b14   0x60  Data  Gb  main.o [1]
htim1                   0x20000034   0x3c  Data  Gb  main.o [1]
main                    0x080007ed  0x18e  Code  Gb  main.o [1]
output_next_bit         0x08000aaf   0x36  Code  Gb  main.o [1]
packetlen_next_bit      0x080009df   0x32  Code  Gb  main.o [1]
reg                     0x20000000    0x2  Data  Lc  main.o [1]
regstate_next_bit       0x08000a11   0x36  Code  Gb  main.o [1]
sync_next_bit           0x0800097b   0x32  Code  Gb  main.o [1]
uwTick                  0x20000078    0x4  Data  Lc  stm32f1xx_hal.o [1]
zeros_next_bit          0x08000a89   0x26  Code  Gb  main.o [1]


[1] = C:\UTCloud\BAKA\Discovery\PRBS9-F1\EWARM\PRBS9-F1\Obj
[2] = command line
[3] = dl7M_tln.a
[4] = rt7M_tl.a
[5] = shb_l.a

  5 252 bytes of readonly  code memory
     55 bytes of readonly  data memory
    638 bytes of readwrite data memory

Errors: none
Warnings: none
